{
  "_format": "hh-sol-artifact-1",
  "contractName": "MyNFT",
  "sourceName": "contracts/MyNFT.sol",
  "abi": [
    {
      "inputs": [],
      "stateMutability": "nonpayable",
      "type": "constructor"
    },
    {
      "anonymous": false,
      "inputs": [
        {
          "indexed": true,
          "internalType": "address",
          "name": "owner",
          "type": "address"
        },
        {
          "indexed": true,
          "internalType": "address",
          "name": "approved",
          "type": "address"
        },
        {
          "indexed": true,
          "internalType": "uint256",
          "name": "tokenId",
          "type": "uint256"
        }
      ],
      "name": "Approval",
      "type": "event"
    },
    {
      "anonymous": false,
      "inputs": [
        {
          "indexed": true,
          "internalType": "address",
          "name": "owner",
          "type": "address"
        },
        {
          "indexed": true,
          "internalType": "address",
          "name": "operator",
          "type": "address"
        },
        {
          "indexed": false,
          "internalType": "bool",
          "name": "approved",
          "type": "bool"
        }
      ],
      "name": "ApprovalForAll",
      "type": "event"
    },
    {
      "anonymous": false,
      "inputs": [
        {
          "indexed": true,
          "internalType": "address",
          "name": "previousOwner",
          "type": "address"
        },
        {
          "indexed": true,
          "internalType": "address",
          "name": "newOwner",
          "type": "address"
        }
      ],
      "name": "OwnershipTransferred",
      "type": "event"
    },
    {
      "anonymous": false,
      "inputs": [
        {
          "indexed": true,
          "internalType": "address",
          "name": "from",
          "type": "address"
        },
        {
          "indexed": true,
          "internalType": "address",
          "name": "to",
          "type": "address"
        },
        {
          "indexed": true,
          "internalType": "uint256",
          "name": "tokenId",
          "type": "uint256"
        }
      ],
      "name": "Transfer",
      "type": "event"
    },
    {
      "inputs": [
        {
          "internalType": "address",
          "name": "to",
          "type": "address"
        },
        {
          "internalType": "uint256",
          "name": "tokenId",
          "type": "uint256"
        }
      ],
      "name": "approve",
      "outputs": [],
      "stateMutability": "nonpayable",
      "type": "function"
    },
    {
      "inputs": [
        {
          "internalType": "address",
          "name": "owner",
          "type": "address"
        }
      ],
      "name": "balanceOf",
      "outputs": [
        {
          "internalType": "uint256",
          "name": "",
          "type": "uint256"
        }
      ],
      "stateMutability": "view",
      "type": "function"
    },
    {
      "inputs": [
        {
          "internalType": "uint256",
          "name": "tokenId",
          "type": "uint256"
        }
      ],
      "name": "getApproved",
      "outputs": [
        {
          "internalType": "address",
          "name": "",
          "type": "address"
        }
      ],
      "stateMutability": "view",
      "type": "function"
    },
    {
      "inputs": [
        {
          "internalType": "address",
          "name": "owner",
          "type": "address"
        },
        {
          "internalType": "address",
          "name": "operator",
          "type": "address"
        }
      ],
      "name": "isApprovedForAll",
      "outputs": [
        {
          "internalType": "bool",
          "name": "",
          "type": "bool"
        }
      ],
      "stateMutability": "view",
      "type": "function"
    },
    {
      "inputs": [
        {
          "internalType": "address",
          "name": "recipient",
          "type": "address"
        },
        {
          "internalType": "string",
          "name": "tokenURI",
          "type": "string"
        }
      ],
      "name": "mintNFT",
      "outputs": [
        {
          "internalType": "uint256",
          "name": "",
          "type": "uint256"
        }
      ],
      "stateMutability": "nonpayable",
      "type": "function"
    },
    {
      "inputs": [],
      "name": "name",
      "outputs": [
        {
          "internalType": "string",
          "name": "",
          "type": "string"
        }
      ],
      "stateMutability": "view",
      "type": "function"
    },
    {
      "inputs": [],
      "name": "owner",
      "outputs": [
        {
          "internalType": "address",
          "name": "",
          "type": "address"
        }
      ],
      "stateMutability": "view",
      "type": "function"
    },
    {
      "inputs": [
        {
          "internalType": "uint256",
          "name": "tokenId",
          "type": "uint256"
        }
      ],
      "name": "ownerOf",
      "outputs": [
        {
          "internalType": "address",
          "name": "",
          "type": "address"
        }
      ],
      "stateMutability": "view",
      "type": "function"
    },
    {
      "inputs": [],
      "name": "renounceOwnership",
      "outputs": [],
      "stateMutability": "nonpayable",
      "type": "function"
    },
    {
      "inputs": [
        {
          "internalType": "address",
          "name": "from",
          "type": "address"
        },
        {
          "internalType": "address",
          "name": "to",
          "type": "address"
        },
        {
          "internalType": "uint256",
          "name": "tokenId",
          "type": "uint256"
        }
      ],
      "name": "safeTransferFrom",
      "outputs": [],
      "stateMutability": "nonpayable",
      "type": "function"
    },
    {
      "inputs": [
        {
          "internalType": "address",
          "name": "from",
          "type": "address"
        },
        {
          "internalType": "address",
          "name": "to",
          "type": "address"
        },
        {
          "internalType": "uint256",
          "name": "tokenId",
          "type": "uint256"
        },
        {
          "internalType": "bytes",
          "name": "_data",
          "type": "bytes"
        }
      ],
      "name": "safeTransferFrom",
      "outputs": [],
      "stateMutability": "nonpayable",
      "type": "function"
    },
    {
      "inputs": [
        {
          "internalType": "address",
          "name": "operator",
          "type": "address"
        },
        {
          "internalType": "bool",
          "name": "approved",
          "type": "bool"
        }
      ],
      "name": "setApprovalForAll",
      "outputs": [],
      "stateMutability": "nonpayable",
      "type": "function"
    },
    {
      "inputs": [
        {
          "internalType": "bytes4",
          "name": "interfaceId",
          "type": "bytes4"
        }
      ],
      "name": "supportsInterface",
      "outputs": [
        {
          "internalType": "bool",
          "name": "",
          "type": "bool"
        }
      ],
      "stateMutability": "view",
      "type": "function"
    },
    {
      "inputs": [],
      "name": "symbol",
      "outputs": [
        {
          "internalType": "string",
          "name": "",
          "type": "string"
        }
      ],
      "stateMutability": "view",
      "type": "function"
    },
    {
      "inputs": [
        {
          "internalType": "uint256",
          "name": "tokenId",
          "type": "uint256"
        }
      ],
      "name": "tokenURI",
      "outputs": [
        {
          "internalType": "string",
          "name": "",
          "type": "string"
        }
      ],
      "stateMutability": "view",
      "type": "function"
    },
    {
      "inputs": [
        {
          "internalType": "address",
          "name": "from",
          "type": "address"
        },
        {
          "internalType": "address",
          "name": "to",
          "type": "address"
        },
        {
          "internalType": "uint256",
          "name": "tokenId",
          "type": "uint256"
        }
      ],
      "name": "transfer",
      "outputs": [],
      "stateMutability": "payable",
      "type": "function"
    },
    {
      "inputs": [
        {
          "internalType": "address",
          "name": "from",
          "type": "address"
        },
        {
          "internalType": "address",
          "name": "to",
          "type": "address"
        },
        {
          "internalType": "uint256[]",
          "name": "ids",
          "type": "uint256[]"
        }
      ],
      "name": "transfer2",
      "outputs": [],
      "stateMutability": "payable",
      "type": "function"
    },
    {
      "inputs": [
        {
          "internalType": "address",
          "name": "from",
          "type": "address"
        },
        {
          "internalType": "address",
          "name": "to",
          "type": "address"
        },
        {
          "internalType": "uint256",
          "name": "tokenId",
          "type": "uint256"
        }
      ],
      "name": "transferFrom",
      "outputs": [],
      "stateMutability": "nonpayable",
      "type": "function"
    },
    {
      "inputs": [
        {
          "internalType": "address",
          "name": "newOwner",
          "type": "address"
        }
      ],
      "name": "transferOwnership",
      "outputs": [],
      "stateMutability": "nonpayable",
      "type": "function"
    }
  ],
  "bytecode": "0x60806040523480156200001157600080fd5b506040518060400160405280600581526020017f4d794e46540000000000000000000000000000000000000000000000000000008152506040518060400160405280600381526020017f4e46540000000000000000000000000000000000000000000000000000000000815250816000908051906020019062000096929190620001a6565b508060019080519060200190620000af929190620001a6565b505050620000d2620000c6620000d860201b60201c565b620000e060201b60201c565b620002bb565b600033905090565b6000600760009054906101000a900473ffffffffffffffffffffffffffffffffffffffff16905081600760006101000a81548173ffffffffffffffffffffffffffffffffffffffff021916908373ffffffffffffffffffffffffffffffffffffffff1602179055508173ffffffffffffffffffffffffffffffffffffffff168173ffffffffffffffffffffffffffffffffffffffff167f8be0079c531659141344cd1fd0a4f28419497f9722a3daafe3b4186f6b6457e060405160405180910390a35050565b828054620001b49062000256565b90600052602060002090601f016020900481019282620001d8576000855562000224565b82601f10620001f357805160ff191683800117855562000224565b8280016001018555821562000224579182015b828111156200022357825182559160200191906001019062000206565b5b50905062000233919062000237565b5090565b5b808211156200025257600081600090555060010162000238565b5090565b600060028204905060018216806200026f57607f821691505b602082108114156200028657620002856200028c565b5b50919050565b7f4e487b7100000000000000000000000000000000000000000000000000000000600052602260045260246000fd5b6134df80620002cb6000396000f3fe6080604052600436106101145760003560e01c80638da5cb5b116100a0578063c87b56dd11610064578063c87b56dd1461038e578063df886c8a146103cb578063e985e9c5146103e7578063eacabe1414610424578063f2fde38b1461046157610114565b80638da5cb5b146102ca57806395d89b41146102f5578063a22cb46514610320578063b88d4fde14610349578063beabacc81461037257610114565b806323b872dd116100e757806323b872dd146101e757806342842e0e146102105780636352211e1461023957806370a0823114610276578063715018a6146102b357610114565b806301ffc9a71461011957806306fdde0314610156578063081812fc14610181578063095ea7b3146101be575b600080fd5b34801561012557600080fd5b50610140600480360381019061013b9190612561565b61048a565b60405161014d9190612dcb565b60405180910390f35b34801561016257600080fd5b5061016b61056c565b6040516101789190612de6565b60405180910390f35b34801561018d57600080fd5b506101a860048036038101906101a391906125b3565b6105fe565b6040516101b59190612d64565b60405180910390f35b3480156101ca57600080fd5b506101e560048036038101906101e09190612525565b610683565b005b3480156101f357600080fd5b5061020e600480360381019061020991906123cb565b61079b565b005b34801561021c57600080fd5b50610237600480360381019061023291906123cb565b6107fb565b005b34801561024557600080fd5b50610260600480360381019061025b91906125b3565b61081b565b60405161026d9190612d64565b60405180910390f35b34801561028257600080fd5b5061029d600480360381019061029891906122ff565b6108cd565b6040516102aa9190613048565b60405180910390f35b3480156102bf57600080fd5b506102c8610985565b005b3480156102d657600080fd5b506102df610a0d565b6040516102ec9190612d64565b60405180910390f35b34801561030157600080fd5b5061030a610a37565b6040516103179190612de6565b60405180910390f35b34801561032c57600080fd5b5061034760048036038101906103429190612495565b610ac9565b005b34801561035557600080fd5b50610370600480360381019061036b919061241a565b610c4a565b005b61038c600480360381019061038791906123cb565b610cac565b005b34801561039a57600080fd5b506103b560048036038101906103b091906125b3565b610cbc565b6040516103c29190612de6565b60405180910390f35b6103e560048036038101906103e09190612364565b610e0e565b005b3480156103f357600080fd5b5061040e60048036038101906104099190612328565b610e1e565b60405161041b9190612dcb565b60405180910390f35b34801561043057600080fd5b5061044b600480360381019061044691906124d1565b610eb2565b6040516104589190613048565b60405180910390f35b34801561046d57600080fd5b50610488600480360381019061048391906122ff565b610f66565b005b60007f80ac58cd000000000000000000000000000000000000000000000000000000007bffffffffffffffffffffffffffffffffffffffffffffffffffffffff1916827bffffffffffffffffffffffffffffffffffffffffffffffffffffffff1916148061055557507f5b5e139f000000000000000000000000000000000000000000000000000000007bffffffffffffffffffffffffffffffffffffffffffffffffffffffff1916827bffffffffffffffffffffffffffffffffffffffffffffffffffffffff1916145b8061056557506105648261105e565b5b9050919050565b60606000805461057b906132d4565b80601f01602080910402602001604051908101604052809291908181526020018280546105a7906132d4565b80156105f45780601f106105c9576101008083540402835291602001916105f4565b820191906000526020600020905b8154815290600101906020018083116105d757829003601f168201915b5050505050905090565b6000610609826110c8565b610648576040517f08c379a000000000000000000000000000000000000000000000000000000000815260040161063f90612f88565b60405180910390fd5b6004600083815260200190815260200160002060009054906101000a900473ffffffffffffffffffffffffffffffffffffffff169050919050565b600061068e8261081b565b90508073ffffffffffffffffffffffffffffffffffffffff168373ffffffffffffffffffffffffffffffffffffffff1614156106ff576040517f08c379a00000000000000000000000000000000000000000000000000000000081526004016106f690613008565b60405180910390fd5b8073ffffffffffffffffffffffffffffffffffffffff1661071e611134565b73ffffffffffffffffffffffffffffffffffffffff16148061074d575061074c81610747611134565b610e1e565b5b61078c576040517f08c379a000000000000000000000000000000000000000000000000000000000815260040161078390612ec8565b60405180910390fd5b610796838361113c565b505050565b6107ac6107a6611134565b826111f5565b6107eb576040517f08c379a00000000000000000000000000000000000000000000000000000000081526004016107e290613028565b60405180910390fd5b6107f68383836112d3565b505050565b61081683838360405180602001604052806000815250610c4a565b505050565b6000806002600084815260200190815260200160002060009054906101000a900473ffffffffffffffffffffffffffffffffffffffff169050600073ffffffffffffffffffffffffffffffffffffffff168173ffffffffffffffffffffffffffffffffffffffff1614156108c4576040517f08c379a00000000000000000000000000000000000000000000000000000000081526004016108bb90612f08565b60405180910390fd5b80915050919050565b60008073ffffffffffffffffffffffffffffffffffffffff168273ffffffffffffffffffffffffffffffffffffffff16141561093e576040517f08c379a000000000000000000000000000000000000000000000000000000000815260040161093590612ee8565b60405180910390fd5b600360008373ffffffffffffffffffffffffffffffffffffffff1673ffffffffffffffffffffffffffffffffffffffff168152602001908152602001600020549050919050565b61098d611134565b73ffffffffffffffffffffffffffffffffffffffff166109ab610a0d565b73ffffffffffffffffffffffffffffffffffffffff1614610a01576040517f08c379a00000000000000000000000000000000000000000000000000000000081526004016109f890612fa8565b60405180910390fd5b610a0b600061152f565b565b6000600760009054906101000a900473ffffffffffffffffffffffffffffffffffffffff16905090565b606060018054610a46906132d4565b80601f0160208091040260200160405190810160405280929190818152602001828054610a72906132d4565b8015610abf5780601f10610a9457610100808354040283529160200191610abf565b820191906000526020600020905b815481529060010190602001808311610aa257829003601f168201915b5050505050905090565b610ad1611134565b73ffffffffffffffffffffffffffffffffffffffff168273ffffffffffffffffffffffffffffffffffffffff161415610b3f576040517f08c379a0000000000000000000000000000000000000000000000000000000008152600401610b3690612e88565b60405180910390fd5b8060056000610b4c611134565b73ffffffffffffffffffffffffffffffffffffffff1673ffffffffffffffffffffffffffffffffffffffff16815260200190815260200160002060008473ffffffffffffffffffffffffffffffffffffffff1673ffffffffffffffffffffffffffffffffffffffff16815260200190815260200160002060006101000a81548160ff0219169083151502179055508173ffffffffffffffffffffffffffffffffffffffff16610bf9611134565b73ffffffffffffffffffffffffffffffffffffffff167f17307eab39ab6107e8899845ad3d59bd9653f200f220920489ca2b5937696c3183604051610c3e9190612dcb565b60405180910390a35050565b610c5b610c55611134565b836111f5565b610c9a576040517f08c379a0000000000000000000000000000000000000000000000000000000008152600401610c9190613028565b60405180910390fd5b610ca6848484846115f5565b50505050565b610cb78383836112d3565b505050565b6060610cc7826110c8565b610d06576040517f08c379a0000000000000000000000000000000000000000000000000000000008152600401610cfd90612f68565b60405180910390fd5b6000600660008481526020019081526020016000208054610d26906132d4565b80601f0160208091040260200160405190810160405280929190818152602001828054610d52906132d4565b8015610d9f5780601f10610d7457610100808354040283529160200191610d9f565b820191906000526020600020905b815481529060010190602001808311610d8257829003601f168201915b505050505090506000610db0611651565b9050600081511415610dc6578192505050610e09565b600082511115610dfb578082604051602001610de3929190612d40565b60405160208183030381529060405292505050610e09565b610e0484611668565b925050505b919050565b610e1983838361170f565b505050565b6000600560008473ffffffffffffffffffffffffffffffffffffffff1673ffffffffffffffffffffffffffffffffffffffff16815260200190815260200160002060008373ffffffffffffffffffffffffffffffffffffffff1673ffffffffffffffffffffffffffffffffffffffff16815260200190815260200160002060009054906101000a900460ff16905092915050565b6000610ebc611134565b73ffffffffffffffffffffffffffffffffffffffff16610eda610a0d565b73ffffffffffffffffffffffffffffffffffffffff1614610f30576040517f08c379a0000000000000000000000000000000000000000000000000000000008152600401610f2790612fa8565b60405180910390fd5b610f3a6008611acb565b6000610f466008611ae1565b9050610f528482611aef565b610f5c8184611cbd565b8091505092915050565b610f6e611134565b73ffffffffffffffffffffffffffffffffffffffff16610f8c610a0d565b73ffffffffffffffffffffffffffffffffffffffff1614610fe2576040517f08c379a0000000000000000000000000000000000000000000000000000000008152600401610fd990612fa8565b60405180910390fd5b600073ffffffffffffffffffffffffffffffffffffffff168173ffffffffffffffffffffffffffffffffffffffff161415611052576040517f08c379a000000000000000000000000000000000000000000000000000000000815260040161104990612e28565b60405180910390fd5b61105b8161152f565b50565b60007f01ffc9a7000000000000000000000000000000000000000000000000000000007bffffffffffffffffffffffffffffffffffffffffffffffffffffffff1916827bffffffffffffffffffffffffffffffffffffffffffffffffffffffff1916149050919050565b60008073ffffffffffffffffffffffffffffffffffffffff166002600084815260200190815260200160002060009054906101000a900473ffffffffffffffffffffffffffffffffffffffff1673ffffffffffffffffffffffffffffffffffffffff1614159050919050565b600033905090565b816004600083815260200190815260200160002060006101000a81548173ffffffffffffffffffffffffffffffffffffffff021916908373ffffffffffffffffffffffffffffffffffffffff160217905550808273ffffffffffffffffffffffffffffffffffffffff166111af8361081b565b73ffffffffffffffffffffffffffffffffffffffff167f8c5be1e5ebec7d5bd14f71427d1e84f3dd0314c0f7b2291e5b200ac8c7c3b92560405160405180910390a45050565b6000611200826110c8565b61123f576040517f08c379a000000000000000000000000000000000000000000000000000000000815260040161123690612ea8565b60405180910390fd5b600061124a8361081b565b90508073ffffffffffffffffffffffffffffffffffffffff168473ffffffffffffffffffffffffffffffffffffffff1614806112b957508373ffffffffffffffffffffffffffffffffffffffff166112a1846105fe565b73ffffffffffffffffffffffffffffffffffffffff16145b806112ca57506112c98185610e1e565b5b91505092915050565b8273ffffffffffffffffffffffffffffffffffffffff166112f38261081b565b73ffffffffffffffffffffffffffffffffffffffff1614611349576040517f08c379a000000000000000000000000000000000000000000000000000000000815260040161134090612fc8565b60405180910390fd5b600073ffffffffffffffffffffffffffffffffffffffff168273ffffffffffffffffffffffffffffffffffffffff1614156113b9576040517f08c379a00000000000000000000000000000000000000000000000000000000081526004016113b090612e68565b60405180910390fd5b6113c4838383611d31565b6113cf60008261113c565b6001600360008573ffffffffffffffffffffffffffffffffffffffff1673ffffffffffffffffffffffffffffffffffffffff168152602001908152602001600020600082825461141f91906131ea565b925050819055506001600360008473ffffffffffffffffffffffffffffffffffffffff1673ffffffffffffffffffffffffffffffffffffffff16815260200190815260200160002060008282546114769190613163565b92505081905550816002600083815260200190815260200160002060006101000a81548173ffffffffffffffffffffffffffffffffffffffff021916908373ffffffffffffffffffffffffffffffffffffffff160217905550808273ffffffffffffffffffffffffffffffffffffffff168473ffffffffffffffffffffffffffffffffffffffff167fddf252ad1be2c89b69c2b068fc378daa952ba7f163c4a11628f55a4df523b3ef60405160405180910390a4505050565b6000600760009054906101000a900473ffffffffffffffffffffffffffffffffffffffff16905081600760006101000a81548173ffffffffffffffffffffffffffffffffffffffff021916908373ffffffffffffffffffffffffffffffffffffffff1602179055508173ffffffffffffffffffffffffffffffffffffffff168173ffffffffffffffffffffffffffffffffffffffff167f8be0079c531659141344cd1fd0a4f28419497f9722a3daafe3b4186f6b6457e060405160405180910390a35050565b6116008484846112d3565b61160c84848484611d36565b61164b576040517f08c379a000000000000000000000000000000000000000000000000000000000815260040161164290612e08565b60405180910390fd5b50505050565b606060405180602001604052806000815250905090565b6060611673826110c8565b6116b2576040517f08c379a00000000000000000000000000000000000000000000000000000000081526004016116a990612fe8565b60405180910390fd5b60006116bc611651565b905060008151116116dc5760405180602001604052806000815250611707565b806116e684611ecd565b6040516020016116f7929190612d40565b6040516020818303038152906040525b915050919050565b60005b8151811015611ac5578373ffffffffffffffffffffffffffffffffffffffff1661177b83838151811061176e577f4e487b7100000000000000000000000000000000000000000000000000000000600052603260045260246000fd5b602002602001015161081b565b73ffffffffffffffffffffffffffffffffffffffff16146117d1576040517f08c379a00000000000000000000000000000000000000000000000000000000081526004016117c890612fc8565b60405180910390fd5b600073ffffffffffffffffffffffffffffffffffffffff168373ffffffffffffffffffffffffffffffffffffffff161415611841576040517f08c379a000000000000000000000000000000000000000000000000000000000815260040161183890612e68565b60405180910390fd5b61188c848484848151811061187f577f4e487b7100000000000000000000000000000000000000000000000000000000600052603260045260246000fd5b6020026020010151611d31565b6118d760008383815181106118ca577f4e487b7100000000000000000000000000000000000000000000000000000000600052603260045260246000fd5b602002602001015161113c565b6001600360008673ffffffffffffffffffffffffffffffffffffffff1673ffffffffffffffffffffffffffffffffffffffff168152602001908152602001600020600082825461192791906131ea565b925050819055506001600360008573ffffffffffffffffffffffffffffffffffffffff1673ffffffffffffffffffffffffffffffffffffffff168152602001908152602001600020600082825461197e9190613163565b9250508190555082600260008484815181106119c3577f4e487b7100000000000000000000000000000000000000000000000000000000600052603260045260246000fd5b6020026020010151815260200190815260200160002060006101000a81548173ffffffffffffffffffffffffffffffffffffffff021916908373ffffffffffffffffffffffffffffffffffffffff160217905550818181518110611a50577f4e487b7100000000000000000000000000000000000000000000000000000000600052603260045260246000fd5b60200260200101518373ffffffffffffffffffffffffffffffffffffffff168573ffffffffffffffffffffffffffffffffffffffff167fddf252ad1be2c89b69c2b068fc378daa952ba7f163c4a11628f55a4df523b3ef60405160405180910390a48080611abd90613306565b915050611712565b50505050565b6001816000016000828254019250508190555050565b600081600001549050919050565b600073ffffffffffffffffffffffffffffffffffffffff168273ffffffffffffffffffffffffffffffffffffffff161415611b5f576040517f08c379a0000000000000000000000000000000000000000000000000000000008152600401611b5690612f48565b60405180910390fd5b611b68816110c8565b15611ba8576040517f08c379a0000000000000000000000000000000000000000000000000000000008152600401611b9f90612e48565b60405180910390fd5b611bb460008383611d31565b6001600360008473ffffffffffffffffffffffffffffffffffffffff1673ffffffffffffffffffffffffffffffffffffffff1681526020019081526020016000206000828254611c049190613163565b92505081905550816002600083815260200190815260200160002060006101000a81548173ffffffffffffffffffffffffffffffffffffffff021916908373ffffffffffffffffffffffffffffffffffffffff160217905550808273ffffffffffffffffffffffffffffffffffffffff16600073ffffffffffffffffffffffffffffffffffffffff167fddf252ad1be2c89b69c2b068fc378daa952ba7f163c4a11628f55a4df523b3ef60405160405180910390a45050565b611cc6826110c8565b611d05576040517f08c379a0000000000000000000000000000000000000000000000000000000008152600401611cfc90612f28565b60405180910390fd5b80600660008481526020019081526020016000209080519060200190611d2c92919061208d565b505050565b505050565b6000611d578473ffffffffffffffffffffffffffffffffffffffff1661207a565b15611ec0578373ffffffffffffffffffffffffffffffffffffffff1663150b7a02611d80611134565b8786866040518563ffffffff1660e01b8152600401611da29493929190612d7f565b602060405180830381600087803b158015611dbc57600080fd5b505af1925050508015611ded57506040513d601f19601f82011682018060405250810190611dea919061258a565b60015b611e70573d8060008114611e1d576040519150601f19603f3d011682016040523d82523d6000602084013e611e22565b606091505b50600081511415611e68576040517f08c379a0000000000000000000000000000000000000000000000000000000008152600401611e5f90612e08565b60405180910390fd5b805181602001fd5b63150b7a0260e01b7bffffffffffffffffffffffffffffffffffffffffffffffffffffffff1916817bffffffffffffffffffffffffffffffffffffffffffffffffffffffff191614915050611ec5565b600190505b949350505050565b60606000821415611f15576040518060400160405280600181526020017f30000000000000000000000000000000000000000000000000000000000000008152509050612075565b600082905060005b60008214611f47578080611f3090613306565b915050600a82611f4091906131b9565b9150611f1d565b60008167ffffffffffffffff811115611f89577f4e487b7100000000000000000000000000000000000000000000000000000000600052604160045260246000fd5b6040519080825280601f01601f191660200182016040528015611fbb5781602001600182028036833780820191505090505b5090505b6000851461206e57600182611fd491906131ea565b9150600a85611fe3919061334f565b6030611fef9190613163565b60f81b81838151811061202b577f4e487b7100000000000000000000000000000000000000000000000000000000600052603260045260246000fd5b60200101907effffffffffffffffffffffffffffffffffffffffffffffffffffffffffffff1916908160001a905350600a8561206791906131b9565b9450611fbf565b8093505050505b919050565b600080823b905060008111915050919050565b828054612099906132d4565b90600052602060002090601f0160209004810192826120bb5760008555612102565b82601f106120d457805160ff1916838001178555612102565b82800160010185558215612102579182015b828111156121015782518255916020019190600101906120e6565b5b50905061210f9190612113565b5090565b5b8082111561212c576000816000905550600101612114565b5090565b600061214361213e84613094565b613063565b9050808382526020820190508285602086028201111561216257600080fd5b60005b85811015612192578161217888826122ea565b845260208401935060208301925050600181019050612165565b5050509392505050565b60006121af6121aa846130c0565b613063565b9050828152602081018484840111156121c757600080fd5b6121d2848285613292565b509392505050565b60006121ed6121e8846130f0565b613063565b90508281526020810184848401111561220557600080fd5b612210848285613292565b509392505050565b6000813590506122278161344d565b92915050565b600082601f83011261223e57600080fd5b813561224e848260208601612130565b91505092915050565b60008135905061226681613464565b92915050565b60008135905061227b8161347b565b92915050565b6000815190506122908161347b565b92915050565b600082601f8301126122a757600080fd5b81356122b784826020860161219c565b91505092915050565b600082601f8301126122d157600080fd5b81356122e18482602086016121da565b91505092915050565b6000813590506122f981613492565b92915050565b60006020828403121561231157600080fd5b600061231f84828501612218565b91505092915050565b6000806040838503121561233b57600080fd5b600061234985828601612218565b925050602061235a85828601612218565b9150509250929050565b60008060006060848603121561237957600080fd5b600061238786828701612218565b935050602061239886828701612218565b925050604084013567ffffffffffffffff8111156123b557600080fd5b6123c18682870161222d565b9150509250925092565b6000806000606084860312156123e057600080fd5b60006123ee86828701612218565b93505060206123ff86828701612218565b9250506040612410868287016122ea565b9150509250925092565b6000806000806080858703121561243057600080fd5b600061243e87828801612218565b945050602061244f87828801612218565b9350506040612460878288016122ea565b925050606085013567ffffffffffffffff81111561247d57600080fd5b61248987828801612296565b91505092959194509250565b600080604083850312156124a857600080fd5b60006124b685828601612218565b92505060206124c785828601612257565b9150509250929050565b600080604083850312156124e457600080fd5b60006124f285828601612218565b925050602083013567ffffffffffffffff81111561250f57600080fd5b61251b858286016122c0565b9150509250929050565b6000806040838503121561253857600080fd5b600061254685828601612218565b9250506020612557858286016122ea565b9150509250929050565b60006020828403121561257357600080fd5b60006125818482850161226c565b91505092915050565b60006020828403121561259c57600080fd5b60006125aa84828501612281565b91505092915050565b6000602082840312156125c557600080fd5b60006125d3848285016122ea565b91505092915050565b6125e58161321e565b82525050565b6125f481613230565b82525050565b600061260582613120565b61260f8185613136565b935061261f8185602086016132a1565b6126288161343c565b840191505092915050565b600061263e8261312b565b6126488185613147565b93506126588185602086016132a1565b6126618161343c565b840191505092915050565b60006126778261312b565b6126818185613158565b93506126918185602086016132a1565b80840191505092915050565b60006126aa603283613147565b91507f4552433732313a207472616e7366657220746f206e6f6e20455243373231526560008301527f63656976657220696d706c656d656e74657200000000000000000000000000006020830152604082019050919050565b6000612710602683613147565b91507f4f776e61626c653a206e6577206f776e657220697320746865207a65726f206160008301527f64647265737300000000000000000000000000000000000000000000000000006020830152604082019050919050565b6000612776601c83613147565b91507f4552433732313a20746f6b656e20616c7265616479206d696e746564000000006000830152602082019050919050565b60006127b6602483613147565b91507f4552433732313a207472616e7366657220746f20746865207a65726f2061646460008301527f72657373000000000000000000000000000000000000000000000000000000006020830152604082019050919050565b600061281c601983613147565b91507f4552433732313a20617070726f766520746f2063616c6c6572000000000000006000830152602082019050919050565b600061285c602c83613147565b91507f4552433732313a206f70657261746f7220717565727920666f72206e6f6e657860008301527f697374656e7420746f6b656e00000000000000000000000000000000000000006020830152604082019050919050565b60006128c2603883613147565b91507f4552433732313a20617070726f76652063616c6c6572206973206e6f74206f7760008301527f6e6572206e6f7220617070726f76656420666f7220616c6c00000000000000006020830152604082019050919050565b6000612928602a83613147565b91507f4552433732313a2062616c616e636520717565727920666f7220746865207a6560008301527f726f2061646472657373000000000000000000000000000000000000000000006020830152604082019050919050565b600061298e602983613147565b91507f4552433732313a206f776e657220717565727920666f72206e6f6e657869737460008301527f656e7420746f6b656e00000000000000000000000000000000000000000000006020830152604082019050919050565b60006129f4602e83613147565b91507f45524337323155524953746f726167653a2055524920736574206f66206e6f6e60008301527f6578697374656e7420746f6b656e0000000000000000000000000000000000006020830152604082019050919050565b6000612a5a602083613147565b91507f4552433732313a206d696e7420746f20746865207a65726f20616464726573736000830152602082019050919050565b6000612a9a603183613147565b91507f45524337323155524953746f726167653a2055524920717565727920666f722060008301527f6e6f6e6578697374656e7420746f6b656e0000000000000000000000000000006020830152604082019050919050565b6000612b00602c83613147565b91507f4552433732313a20617070726f76656420717565727920666f72206e6f6e657860008301527f697374656e7420746f6b656e00000000000000000000000000000000000000006020830152604082019050919050565b6000612b66602083613147565b91507f4f776e61626c653a2063616c6c6572206973206e6f7420746865206f776e65726000830152602082019050919050565b6000612ba6602983613147565b91507f4552433732313a207472616e73666572206f6620746f6b656e2074686174206960008301527f73206e6f74206f776e00000000000000000000000000000000000000000000006020830152604082019050919050565b6000612c0c602f83613147565b91507f4552433732314d657461646174613a2055524920717565727920666f72206e6f60008301527f6e6578697374656e7420746f6b656e00000000000000000000000000000000006020830152604082019050919050565b6000612c72602183613147565b91507f4552433732313a20617070726f76616c20746f2063757272656e74206f776e6560008301527f72000000000000000000000000000000000000000000000000000000000000006020830152604082019050919050565b6000612cd8603183613147565b91507f4552433732313a207472616e736665722063616c6c6572206973206e6f74206f60008301527f776e6572206e6f7220617070726f7665640000000000000000000000000000006020830152604082019050919050565b612d3a81613288565b82525050565b6000612d4c828561266c565b9150612d58828461266c565b91508190509392505050565b6000602082019050612d7960008301846125dc565b92915050565b6000608082019050612d9460008301876125dc565b612da160208301866125dc565b612dae6040830185612d31565b8181036060830152612dc081846125fa565b905095945050505050565b6000602082019050612de060008301846125eb565b92915050565b60006020820190508181036000830152612e008184612633565b905092915050565b60006020820190508181036000830152612e218161269d565b9050919050565b60006020820190508181036000830152612e4181612703565b9050919050565b60006020820190508181036000830152612e6181612769565b9050919050565b60006020820190508181036000830152612e81816127a9565b9050919050565b60006020820190508181036000830152612ea18161280f565b9050919050565b60006020820190508181036000830152612ec18161284f565b9050919050565b60006020820190508181036000830152612ee1816128b5565b9050919050565b60006020820190508181036000830152612f018161291b565b9050919050565b60006020820190508181036000830152612f2181612981565b9050919050565b60006020820190508181036000830152612f41816129e7565b9050919050565b60006020820190508181036000830152612f6181612a4d565b9050919050565b60006020820190508181036000830152612f8181612a8d565b9050919050565b60006020820190508181036000830152612fa181612af3565b9050919050565b60006020820190508181036000830152612fc181612b59565b9050919050565b60006020820190508181036000830152612fe181612b99565b9050919050565b6000602082019050818103600083015261300181612bff565b9050919050565b6000602082019050818103600083015261302181612c65565b9050919050565b6000602082019050818103600083015261304181612ccb565b9050919050565b600060208201905061305d6000830184612d31565b92915050565b6000604051905081810181811067ffffffffffffffff8211171561308a5761308961340d565b5b8060405250919050565b600067ffffffffffffffff8211156130af576130ae61340d565b5b602082029050602081019050919050565b600067ffffffffffffffff8211156130db576130da61340d565b5b601f19601f8301169050602081019050919050565b600067ffffffffffffffff82111561310b5761310a61340d565b5b601f19601f8301169050602081019050919050565b600081519050919050565b600081519050919050565b600082825260208201905092915050565b600082825260208201905092915050565b600081905092915050565b600061316e82613288565b915061317983613288565b9250827fffffffffffffffffffffffffffffffffffffffffffffffffffffffffffffffff038211156131ae576131ad613380565b5b828201905092915050565b60006131c482613288565b91506131cf83613288565b9250826131df576131de6133af565b5b828204905092915050565b60006131f582613288565b915061320083613288565b92508282101561321357613212613380565b5b828203905092915050565b600061322982613268565b9050919050565b60008115159050919050565b60007fffffffff0000000000000000000000000000000000000000000000000000000082169050919050565b600073ffffffffffffffffffffffffffffffffffffffff82169050919050565b6000819050919050565b82818337600083830152505050565b60005b838110156132bf5780820151818401526020810190506132a4565b838111156132ce576000848401525b50505050565b600060028204905060018216806132ec57607f821691505b60208210811415613300576132ff6133de565b5b50919050565b600061331182613288565b91507fffffffffffffffffffffffffffffffffffffffffffffffffffffffffffffffff82141561334457613343613380565b5b600182019050919050565b600061335a82613288565b915061336583613288565b925082613375576133746133af565b5b828206905092915050565b7f4e487b7100000000000000000000000000000000000000000000000000000000600052601160045260246000fd5b7f4e487b7100000000000000000000000000000000000000000000000000000000600052601260045260246000fd5b7f4e487b7100000000000000000000000000000000000000000000000000000000600052602260045260246000fd5b7f4e487b7100000000000000000000000000000000000000000000000000000000600052604160045260246000fd5b6000601f19601f8301169050919050565b6134568161321e565b811461346157600080fd5b50565b61346d81613230565b811461347857600080fd5b50565b6134848161323c565b811461348f57600080fd5b50565b61349b81613288565b81146134a657600080fd5b5056fea2646970667358221220ed9bd2c1e262926fc0fc63d00ba746a34eaa6fe5c8898bd6747ec211fac5d5cc64736f6c63430008000033",
  "linkReferences": {},
  "deployedLinkReferences": {}
}