{
  "_format": "hh-sol-artifact-1",
  "contractName": "TestNFT",
  "sourceName": "contracts/TestNFT.sol",
  "abi": [
    {
      "inputs": [],
      "stateMutability": "nonpayable",
      "type": "constructor"
    },
    {
      "anonymous": false,
      "inputs": [
        {
          "indexed": true,
          "internalType": "address",
          "name": "owner",
          "type": "address"
        },
        {
          "indexed": true,
          "internalType": "address",
          "name": "approved",
          "type": "address"
        },
        {
          "indexed": true,
          "internalType": "uint256",
          "name": "tokenId",
          "type": "uint256"
        }
      ],
      "name": "Approval",
      "type": "event"
    },
    {
      "anonymous": false,
      "inputs": [
        {
          "indexed": true,
          "internalType": "address",
          "name": "owner",
          "type": "address"
        },
        {
          "indexed": true,
          "internalType": "address",
          "name": "operator",
          "type": "address"
        },
        {
          "indexed": false,
          "internalType": "bool",
          "name": "approved",
          "type": "bool"
        }
      ],
      "name": "ApprovalForAll",
      "type": "event"
    },
    {
      "anonymous": false,
      "inputs": [
        {
          "indexed": true,
          "internalType": "address",
          "name": "previousOwner",
          "type": "address"
        },
        {
          "indexed": true,
          "internalType": "address",
          "name": "newOwner",
          "type": "address"
        }
      ],
      "name": "OwnershipTransferred",
      "type": "event"
    },
    {
      "anonymous": false,
      "inputs": [
        {
          "indexed": true,
          "internalType": "address",
          "name": "from",
          "type": "address"
        },
        {
          "indexed": true,
          "internalType": "address",
          "name": "to",
          "type": "address"
        },
        {
          "indexed": true,
          "internalType": "uint256",
          "name": "tokenId",
          "type": "uint256"
        }
      ],
      "name": "Transfer",
      "type": "event"
    },
    {
      "inputs": [
        {
          "internalType": "address",
          "name": "recipient",
          "type": "address"
        },
        {
          "internalType": "string",
          "name": "tokenURI",
          "type": "string"
        }
      ],
      "name": "_mint",
      "outputs": [],
      "stateMutability": "nonpayable",
      "type": "function"
    },
    {
      "inputs": [
        {
          "internalType": "address",
          "name": "to",
          "type": "address"
        },
        {
          "internalType": "uint256",
          "name": "tokenId",
          "type": "uint256"
        }
      ],
      "name": "approve",
      "outputs": [],
      "stateMutability": "nonpayable",
      "type": "function"
    },
    {
      "inputs": [
        {
          "internalType": "address",
          "name": "owner",
          "type": "address"
        }
      ],
      "name": "balanceOf",
      "outputs": [
        {
          "internalType": "uint256",
          "name": "",
          "type": "uint256"
        }
      ],
      "stateMutability": "view",
      "type": "function"
    },
    {
      "inputs": [
        {
          "internalType": "uint256",
          "name": "tokenId",
          "type": "uint256"
        }
      ],
      "name": "getApproved",
      "outputs": [
        {
          "internalType": "address",
          "name": "",
          "type": "address"
        }
      ],
      "stateMutability": "view",
      "type": "function"
    },
    {
      "inputs": [
        {
          "internalType": "address",
          "name": "owner",
          "type": "address"
        },
        {
          "internalType": "address",
          "name": "operator",
          "type": "address"
        }
      ],
      "name": "isApprovedForAll",
      "outputs": [
        {
          "internalType": "bool",
          "name": "",
          "type": "bool"
        }
      ],
      "stateMutability": "view",
      "type": "function"
    },
    {
      "inputs": [
        {
          "internalType": "address",
          "name": "recipient",
          "type": "address"
        },
        {
          "internalType": "string[]",
          "name": "tokenURIs",
          "type": "string[]"
        }
      ],
      "name": "mint",
      "outputs": [],
      "stateMutability": "nonpayable",
      "type": "function"
    },
    {
      "inputs": [
        {
          "internalType": "address",
          "name": "recipient",
          "type": "address"
        },
        {
          "internalType": "string",
          "name": "tokenURI",
          "type": "string"
        },
        {
          "internalType": "uint256",
          "name": "amount",
          "type": "uint256"
        }
      ],
      "name": "mintNFT",
      "outputs": [],
      "stateMutability": "nonpayable",
      "type": "function"
    },
    {
      "inputs": [],
      "name": "name",
      "outputs": [
        {
          "internalType": "string",
          "name": "",
          "type": "string"
        }
      ],
      "stateMutability": "view",
      "type": "function"
    },
    {
      "inputs": [],
      "name": "owner",
      "outputs": [
        {
          "internalType": "address",
          "name": "",
          "type": "address"
        }
      ],
      "stateMutability": "view",
      "type": "function"
    },
    {
      "inputs": [
        {
          "internalType": "uint256",
          "name": "tokenId",
          "type": "uint256"
        }
      ],
      "name": "ownerOf",
      "outputs": [
        {
          "internalType": "address",
          "name": "",
          "type": "address"
        }
      ],
      "stateMutability": "view",
      "type": "function"
    },
    {
      "inputs": [],
      "name": "renounceOwnership",
      "outputs": [],
      "stateMutability": "nonpayable",
      "type": "function"
    },
    {
      "inputs": [
        {
          "internalType": "address",
          "name": "from",
          "type": "address"
        },
        {
          "internalType": "address",
          "name": "to",
          "type": "address"
        },
        {
          "internalType": "uint256",
          "name": "tokenId",
          "type": "uint256"
        }
      ],
      "name": "safeTransferFrom",
      "outputs": [],
      "stateMutability": "nonpayable",
      "type": "function"
    },
    {
      "inputs": [
        {
          "internalType": "address",
          "name": "from",
          "type": "address"
        },
        {
          "internalType": "address",
          "name": "to",
          "type": "address"
        },
        {
          "internalType": "uint256",
          "name": "tokenId",
          "type": "uint256"
        },
        {
          "internalType": "bytes",
          "name": "_data",
          "type": "bytes"
        }
      ],
      "name": "safeTransferFrom",
      "outputs": [],
      "stateMutability": "nonpayable",
      "type": "function"
    },
    {
      "inputs": [
        {
          "internalType": "address",
          "name": "operator",
          "type": "address"
        },
        {
          "internalType": "bool",
          "name": "approved",
          "type": "bool"
        }
      ],
      "name": "setApprovalForAll",
      "outputs": [],
      "stateMutability": "nonpayable",
      "type": "function"
    },
    {
      "inputs": [
        {
          "internalType": "bytes4",
          "name": "interfaceId",
          "type": "bytes4"
        }
      ],
      "name": "supportsInterface",
      "outputs": [
        {
          "internalType": "bool",
          "name": "",
          "type": "bool"
        }
      ],
      "stateMutability": "view",
      "type": "function"
    },
    {
      "inputs": [],
      "name": "symbol",
      "outputs": [
        {
          "internalType": "string",
          "name": "",
          "type": "string"
        }
      ],
      "stateMutability": "view",
      "type": "function"
    },
    {
      "inputs": [
        {
          "internalType": "uint256",
          "name": "tokenId",
          "type": "uint256"
        }
      ],
      "name": "tokenURI",
      "outputs": [
        {
          "internalType": "string",
          "name": "",
          "type": "string"
        }
      ],
      "stateMutability": "view",
      "type": "function"
    },
    {
      "inputs": [
        {
          "internalType": "address",
          "name": "from",
          "type": "address"
        },
        {
          "internalType": "address",
          "name": "to",
          "type": "address"
        },
        {
          "internalType": "uint256",
          "name": "tokenId",
          "type": "uint256"
        }
      ],
      "name": "transfer",
      "outputs": [],
      "stateMutability": "payable",
      "type": "function"
    },
    {
      "inputs": [
        {
          "internalType": "address",
          "name": "from",
          "type": "address"
        },
        {
          "internalType": "address",
          "name": "to",
          "type": "address"
        },
        {
          "internalType": "uint256",
          "name": "tokenId",
          "type": "uint256"
        }
      ],
      "name": "transferFrom",
      "outputs": [],
      "stateMutability": "nonpayable",
      "type": "function"
    },
    {
      "inputs": [
        {
          "internalType": "address",
          "name": "newOwner",
          "type": "address"
        }
      ],
      "name": "transferOwnership",
      "outputs": [],
      "stateMutability": "nonpayable",
      "type": "function"
    }
  ],
  "bytecode": "0x60806040523480156200001157600080fd5b506040518060400160405280600781526020017f546573744e4654000000000000000000000000000000000000000000000000008152506040518060400160405280600381526020017f4e46540000000000000000000000000000000000000000000000000000000000815250816000908051906020019062000096929190620001a6565b508060019080519060200190620000af929190620001a6565b505050620000d2620000c6620000d860201b60201c565b620000e060201b60201c565b620002bb565b600033905090565b6000600760009054906101000a900473ffffffffffffffffffffffffffffffffffffffff16905081600760006101000a81548173ffffffffffffffffffffffffffffffffffffffff021916908373ffffffffffffffffffffffffffffffffffffffff1602179055508173ffffffffffffffffffffffffffffffffffffffff168173ffffffffffffffffffffffffffffffffffffffff167f8be0079c531659141344cd1fd0a4f28419497f9722a3daafe3b4186f6b6457e060405160405180910390a35050565b828054620001b49062000256565b90600052602060002090601f016020900481019282620001d8576000855562000224565b82601f10620001f357805160ff191683800117855562000224565b8280016001018555821562000224579182015b828111156200022357825182559160200191906001019062000206565b5b50905062000233919062000237565b5090565b5b808211156200025257600081600090555060010162000238565b5090565b600060028204905060018216806200026f57607f821691505b602082108114156200028657620002856200028c565b5b50919050565b7f4e487b7100000000000000000000000000000000000000000000000000000000600052602260045260246000fd5b61331280620002cb6000396000f3fe60806040526004361061011f5760003560e01c8063715018a6116100a0578063beabacc811610064578063beabacc8146103cf578063c87b56dd146103eb578063d90794cf14610428578063e985e9c514610451578063f2fde38b1461048e5761011f565b8063715018a6146103105780638da5cb5b1461032757806395d89b4114610352578063a22cb4651461037d578063b88d4fde146103a65761011f565b806310e6d746116100e757806310e6d7461461021b57806323b872dd1461024457806342842e0e1461026d5780636352211e1461029657806370a08231146102d35761011f565b806301ffc9a71461012457806306fdde0314610161578063081812fc1461018c57806308598df0146101c9578063095ea7b3146101f2575b600080fd5b34801561013057600080fd5b5061014b60048036038101906101469190612394565b6104b7565b6040516101589190612bfe565b60405180910390f35b34801561016d57600080fd5b50610176610599565b6040516101839190612c19565b60405180910390f35b34801561019857600080fd5b506101b360048036038101906101ae91906123e6565b61062b565b6040516101c09190612b97565b60405180910390f35b3480156101d557600080fd5b506101f060048036038101906101eb91906122f1565b6106b0565b005b3480156101fe57600080fd5b5061021960048036038101906102149190612358565b61075a565b005b34801561022757600080fd5b50610242600480360381019061023d919061229d565b610872565b005b34801561025057600080fd5b5061026b60048036038101906102669190612143565b61091f565b005b34801561027957600080fd5b50610294600480360381019061028f9190612143565b61097f565b005b3480156102a257600080fd5b506102bd60048036038101906102b891906123e6565b61099f565b6040516102ca9190612b97565b60405180910390f35b3480156102df57600080fd5b506102fa60048036038101906102f591906120de565b610a51565b6040516103079190612e7b565b60405180910390f35b34801561031c57600080fd5b50610325610b09565b005b34801561033357600080fd5b5061033c610b91565b6040516103499190612b97565b60405180910390f35b34801561035e57600080fd5b50610367610bbb565b6040516103749190612c19565b60405180910390f35b34801561038957600080fd5b506103a4600480360381019061039f9190612261565b610c4d565b005b3480156103b257600080fd5b506103cd60048036038101906103c89190612192565b610dce565b005b6103e960048036038101906103e49190612143565b610e30565b005b3480156103f757600080fd5b50610412600480360381019061040d91906123e6565b610e40565b60405161041f9190612c19565b60405180910390f35b34801561043457600080fd5b5061044f600480360381019061044a919061220d565b610f92565b005b34801561045d57600080fd5b5061047860048036038101906104739190612107565b61107c565b6040516104859190612bfe565b60405180910390f35b34801561049a57600080fd5b506104b560048036038101906104b091906120de565b611110565b005b60007f80ac58cd000000000000000000000000000000000000000000000000000000007bffffffffffffffffffffffffffffffffffffffffffffffffffffffff1916827bffffffffffffffffffffffffffffffffffffffffffffffffffffffff1916148061058257507f5b5e139f000000000000000000000000000000000000000000000000000000007bffffffffffffffffffffffffffffffffffffffffffffffffffffffff1916827bffffffffffffffffffffffffffffffffffffffffffffffffffffffff1916145b80610592575061059182611208565b5b9050919050565b6060600080546105a890613107565b80601f01602080910402602001604051908101604052809291908181526020018280546105d490613107565b80156106215780601f106105f657610100808354040283529160200191610621565b820191906000526020600020905b81548152906001019060200180831161060457829003601f168201915b5050505050905090565b600061063682611272565b610675576040517f08c379a000000000000000000000000000000000000000000000000000000000815260040161066c90612dbb565b60405180910390fd5b6004600083815260200190815260200160002060009054906101000a900473ffffffffffffffffffffffffffffffffffffffff169050919050565b6106b86112de565b73ffffffffffffffffffffffffffffffffffffffff166106d6610b91565b73ffffffffffffffffffffffffffffffffffffffff161461072c576040517f08c379a000000000000000000000000000000000000000000000000000000000815260040161072390612ddb565b60405180910390fd5b60005b81811015610754576107418484610872565b808061074c90613139565b91505061072f565b50505050565b60006107658261099f565b90508073ffffffffffffffffffffffffffffffffffffffff168373ffffffffffffffffffffffffffffffffffffffff1614156107d6576040517f08c379a00000000000000000000000000000000000000000000000000000000081526004016107cd90612e3b565b60405180910390fd5b8073ffffffffffffffffffffffffffffffffffffffff166107f56112de565b73ffffffffffffffffffffffffffffffffffffffff16148061082457506108238161081e6112de565b61107c565b5b610863576040517f08c379a000000000000000000000000000000000000000000000000000000000815260040161085a90612cfb565b60405180910390fd5b61086d83836112e6565b505050565b61087a6112de565b73ffffffffffffffffffffffffffffffffffffffff16610898610b91565b73ffffffffffffffffffffffffffffffffffffffff16146108ee576040517f08c379a00000000000000000000000000000000000000000000000000000000081526004016108e590612ddb565b60405180910390fd5b6108f8600861139f565b600061090460086113b5565b905061091083826113c3565b61091a8183611591565b505050565b61093061092a6112de565b82611605565b61096f576040517f08c379a000000000000000000000000000000000000000000000000000000000815260040161096690612e5b565b60405180910390fd5b61097a8383836116e3565b505050565b61099a83838360405180602001604052806000815250610dce565b505050565b6000806002600084815260200190815260200160002060009054906101000a900473ffffffffffffffffffffffffffffffffffffffff169050600073ffffffffffffffffffffffffffffffffffffffff168173ffffffffffffffffffffffffffffffffffffffff161415610a48576040517f08c379a0000000000000000000000000000000000000000000000000000000008152600401610a3f90612d3b565b60405180910390fd5b80915050919050565b60008073ffffffffffffffffffffffffffffffffffffffff168273ffffffffffffffffffffffffffffffffffffffff161415610ac2576040517f08c379a0000000000000000000000000000000000000000000000000000000008152600401610ab990612d1b565b60405180910390fd5b600360008373ffffffffffffffffffffffffffffffffffffffff1673ffffffffffffffffffffffffffffffffffffffff168152602001908152602001600020549050919050565b610b116112de565b73ffffffffffffffffffffffffffffffffffffffff16610b2f610b91565b73ffffffffffffffffffffffffffffffffffffffff1614610b85576040517f08c379a0000000000000000000000000000000000000000000000000000000008152600401610b7c90612ddb565b60405180910390fd5b610b8f600061193f565b565b6000600760009054906101000a900473ffffffffffffffffffffffffffffffffffffffff16905090565b606060018054610bca90613107565b80601f0160208091040260200160405190810160405280929190818152602001828054610bf690613107565b8015610c435780601f10610c1857610100808354040283529160200191610c43565b820191906000526020600020905b815481529060010190602001808311610c2657829003601f168201915b5050505050905090565b610c556112de565b73ffffffffffffffffffffffffffffffffffffffff168273ffffffffffffffffffffffffffffffffffffffff161415610cc3576040517f08c379a0000000000000000000000000000000000000000000000000000000008152600401610cba90612cbb565b60405180910390fd5b8060056000610cd06112de565b73ffffffffffffffffffffffffffffffffffffffff1673ffffffffffffffffffffffffffffffffffffffff16815260200190815260200160002060008473ffffffffffffffffffffffffffffffffffffffff1673ffffffffffffffffffffffffffffffffffffffff16815260200190815260200160002060006101000a81548160ff0219169083151502179055508173ffffffffffffffffffffffffffffffffffffffff16610d7d6112de565b73ffffffffffffffffffffffffffffffffffffffff167f17307eab39ab6107e8899845ad3d59bd9653f200f220920489ca2b5937696c3183604051610dc29190612bfe565b60405180910390a35050565b610ddf610dd96112de565b83611605565b610e1e576040517f08c379a0000000000000000000000000000000000000000000000000000000008152600401610e1590612e5b565b60405180910390fd5b610e2a84848484611a05565b50505050565b610e3b8383836116e3565b505050565b6060610e4b82611272565b610e8a576040517f08c379a0000000000000000000000000000000000000000000000000000000008152600401610e8190612d9b565b60405180910390fd5b6000600660008481526020019081526020016000208054610eaa90613107565b80601f0160208091040260200160405190810160405280929190818152602001828054610ed690613107565b8015610f235780601f10610ef857610100808354040283529160200191610f23565b820191906000526020600020905b815481529060010190602001808311610f0657829003601f168201915b505050505090506000610f34611a61565b9050600081511415610f4a578192505050610f8d565b600082511115610f7f578082604051602001610f67929190612b73565b60405160208183030381529060405292505050610f8d565b610f8884611a78565b925050505b919050565b610f9a6112de565b73ffffffffffffffffffffffffffffffffffffffff16610fb8610b91565b73ffffffffffffffffffffffffffffffffffffffff161461100e576040517f08c379a000000000000000000000000000000000000000000000000000000000815260040161100590612ddb565b60405180910390fd5b60005b81518110156110775761106483838381518110611057577f4e487b7100000000000000000000000000000000000000000000000000000000600052603260045260246000fd5b6020026020010151610872565b808061106f90613139565b915050611011565b505050565b6000600560008473ffffffffffffffffffffffffffffffffffffffff1673ffffffffffffffffffffffffffffffffffffffff16815260200190815260200160002060008373ffffffffffffffffffffffffffffffffffffffff1673ffffffffffffffffffffffffffffffffffffffff16815260200190815260200160002060009054906101000a900460ff16905092915050565b6111186112de565b73ffffffffffffffffffffffffffffffffffffffff16611136610b91565b73ffffffffffffffffffffffffffffffffffffffff161461118c576040517f08c379a000000000000000000000000000000000000000000000000000000000815260040161118390612ddb565b60405180910390fd5b600073ffffffffffffffffffffffffffffffffffffffff168173ffffffffffffffffffffffffffffffffffffffff1614156111fc576040517f08c379a00000000000000000000000000000000000000000000000000000000081526004016111f390612c5b565b60405180910390fd5b6112058161193f565b50565b60007f01ffc9a7000000000000000000000000000000000000000000000000000000007bffffffffffffffffffffffffffffffffffffffffffffffffffffffff1916827bffffffffffffffffffffffffffffffffffffffffffffffffffffffff1916149050919050565b60008073ffffffffffffffffffffffffffffffffffffffff166002600084815260200190815260200160002060009054906101000a900473ffffffffffffffffffffffffffffffffffffffff1673ffffffffffffffffffffffffffffffffffffffff1614159050919050565b600033905090565b816004600083815260200190815260200160002060006101000a81548173ffffffffffffffffffffffffffffffffffffffff021916908373ffffffffffffffffffffffffffffffffffffffff160217905550808273ffffffffffffffffffffffffffffffffffffffff166113598361099f565b73ffffffffffffffffffffffffffffffffffffffff167f8c5be1e5ebec7d5bd14f71427d1e84f3dd0314c0f7b2291e5b200ac8c7c3b92560405160405180910390a45050565b6001816000016000828254019250508190555050565b600081600001549050919050565b600073ffffffffffffffffffffffffffffffffffffffff168273ffffffffffffffffffffffffffffffffffffffff161415611433576040517f08c379a000000000000000000000000000000000000000000000000000000000815260040161142a90612d7b565b60405180910390fd5b61143c81611272565b1561147c576040517f08c379a000000000000000000000000000000000000000000000000000000000815260040161147390612c7b565b60405180910390fd5b61148860008383611b1f565b6001600360008473ffffffffffffffffffffffffffffffffffffffff1673ffffffffffffffffffffffffffffffffffffffff16815260200190815260200160002060008282546114d89190612f96565b92505081905550816002600083815260200190815260200160002060006101000a81548173ffffffffffffffffffffffffffffffffffffffff021916908373ffffffffffffffffffffffffffffffffffffffff160217905550808273ffffffffffffffffffffffffffffffffffffffff16600073ffffffffffffffffffffffffffffffffffffffff167fddf252ad1be2c89b69c2b068fc378daa952ba7f163c4a11628f55a4df523b3ef60405160405180910390a45050565b61159a82611272565b6115d9576040517f08c379a00000000000000000000000000000000000000000000000000000000081526004016115d090612d5b565b60405180910390fd5b80600660008481526020019081526020016000209080519060200190611600929190611e7b565b505050565b600061161082611272565b61164f576040517f08c379a000000000000000000000000000000000000000000000000000000000815260040161164690612cdb565b60405180910390fd5b600061165a8361099f565b90508073ffffffffffffffffffffffffffffffffffffffff168473ffffffffffffffffffffffffffffffffffffffff1614806116c957508373ffffffffffffffffffffffffffffffffffffffff166116b18461062b565b73ffffffffffffffffffffffffffffffffffffffff16145b806116da57506116d9818561107c565b5b91505092915050565b8273ffffffffffffffffffffffffffffffffffffffff166117038261099f565b73ffffffffffffffffffffffffffffffffffffffff1614611759576040517f08c379a000000000000000000000000000000000000000000000000000000000815260040161175090612dfb565b60405180910390fd5b600073ffffffffffffffffffffffffffffffffffffffff168273ffffffffffffffffffffffffffffffffffffffff1614156117c9576040517f08c379a00000000000000000000000000000000000000000000000000000000081526004016117c090612c9b565b60405180910390fd5b6117d4838383611b1f565b6117df6000826112e6565b6001600360008573ffffffffffffffffffffffffffffffffffffffff1673ffffffffffffffffffffffffffffffffffffffff168152602001908152602001600020600082825461182f919061301d565b925050819055506001600360008473ffffffffffffffffffffffffffffffffffffffff1673ffffffffffffffffffffffffffffffffffffffff16815260200190815260200160002060008282546118869190612f96565b92505081905550816002600083815260200190815260200160002060006101000a81548173ffffffffffffffffffffffffffffffffffffffff021916908373ffffffffffffffffffffffffffffffffffffffff160217905550808273ffffffffffffffffffffffffffffffffffffffff168473ffffffffffffffffffffffffffffffffffffffff167fddf252ad1be2c89b69c2b068fc378daa952ba7f163c4a11628f55a4df523b3ef60405160405180910390a4505050565b6000600760009054906101000a900473ffffffffffffffffffffffffffffffffffffffff16905081600760006101000a81548173ffffffffffffffffffffffffffffffffffffffff021916908373ffffffffffffffffffffffffffffffffffffffff1602179055508173ffffffffffffffffffffffffffffffffffffffff168173ffffffffffffffffffffffffffffffffffffffff167f8be0079c531659141344cd1fd0a4f28419497f9722a3daafe3b4186f6b6457e060405160405180910390a35050565b611a108484846116e3565b611a1c84848484611b24565b611a5b576040517f08c379a0000000000000000000000000000000000000000000000000000000008152600401611a5290612c3b565b60405180910390fd5b50505050565b606060405180602001604052806000815250905090565b6060611a8382611272565b611ac2576040517f08c379a0000000000000000000000000000000000000000000000000000000008152600401611ab990612e1b565b60405180910390fd5b6000611acc611a61565b90506000815111611aec5760405180602001604052806000815250611b17565b80611af684611cbb565b604051602001611b07929190612b73565b6040516020818303038152906040525b915050919050565b505050565b6000611b458473ffffffffffffffffffffffffffffffffffffffff16611e68565b15611cae578373ffffffffffffffffffffffffffffffffffffffff1663150b7a02611b6e6112de565b8786866040518563ffffffff1660e01b8152600401611b909493929190612bb2565b602060405180830381600087803b158015611baa57600080fd5b505af1925050508015611bdb57506040513d601f19601f82011682018060405250810190611bd891906123bd565b60015b611c5e573d8060008114611c0b576040519150601f19603f3d011682016040523d82523d6000602084013e611c10565b606091505b50600081511415611c56576040517f08c379a0000000000000000000000000000000000000000000000000000000008152600401611c4d90612c3b565b60405180910390fd5b805181602001fd5b63150b7a0260e01b7bffffffffffffffffffffffffffffffffffffffffffffffffffffffff1916817bffffffffffffffffffffffffffffffffffffffffffffffffffffffff191614915050611cb3565b600190505b949350505050565b60606000821415611d03576040518060400160405280600181526020017f30000000000000000000000000000000000000000000000000000000000000008152509050611e63565b600082905060005b60008214611d35578080611d1e90613139565b915050600a82611d2e9190612fec565b9150611d0b565b60008167ffffffffffffffff811115611d77577f4e487b7100000000000000000000000000000000000000000000000000000000600052604160045260246000fd5b6040519080825280601f01601f191660200182016040528015611da95781602001600182028036833780820191505090505b5090505b60008514611e5c57600182611dc2919061301d565b9150600a85611dd19190613182565b6030611ddd9190612f96565b60f81b818381518110611e19577f4e487b7100000000000000000000000000000000000000000000000000000000600052603260045260246000fd5b60200101907effffffffffffffffffffffffffffffffffffffffffffffffffffffffffffff1916908160001a905350600a85611e559190612fec565b9450611dad565b8093505050505b919050565b600080823b905060008111915050919050565b828054611e8790613107565b90600052602060002090601f016020900481019282611ea95760008555611ef0565b82601f10611ec257805160ff1916838001178555611ef0565b82800160010185558215611ef0579182015b82811115611eef578251825591602001919060010190611ed4565b5b509050611efd9190611f01565b5090565b5b80821115611f1a576000816000905550600101611f02565b5090565b6000611f31611f2c84612ec7565b612e96565b9050808382526020820190508260005b85811015611f715781358501611f57888261209f565b845260208401935060208301925050600181019050611f41565b5050509392505050565b6000611f8e611f8984612ef3565b612e96565b905082815260208101848484011115611fa657600080fd5b611fb18482856130c5565b509392505050565b6000611fcc611fc784612f23565b612e96565b905082815260208101848484011115611fe457600080fd5b611fef8482856130c5565b509392505050565b60008135905061200681613280565b92915050565b600082601f83011261201d57600080fd5b813561202d848260208601611f1e565b91505092915050565b60008135905061204581613297565b92915050565b60008135905061205a816132ae565b92915050565b60008151905061206f816132ae565b92915050565b600082601f83011261208657600080fd5b8135612096848260208601611f7b565b91505092915050565b600082601f8301126120b057600080fd5b81356120c0848260208601611fb9565b91505092915050565b6000813590506120d8816132c5565b92915050565b6000602082840312156120f057600080fd5b60006120fe84828501611ff7565b91505092915050565b6000806040838503121561211a57600080fd5b600061212885828601611ff7565b925050602061213985828601611ff7565b9150509250929050565b60008060006060848603121561215857600080fd5b600061216686828701611ff7565b935050602061217786828701611ff7565b9250506040612188868287016120c9565b9150509250925092565b600080600080608085870312156121a857600080fd5b60006121b687828801611ff7565b94505060206121c787828801611ff7565b93505060406121d8878288016120c9565b925050606085013567ffffffffffffffff8111156121f557600080fd5b61220187828801612075565b91505092959194509250565b6000806040838503121561222057600080fd5b600061222e85828601611ff7565b925050602083013567ffffffffffffffff81111561224b57600080fd5b6122578582860161200c565b9150509250929050565b6000806040838503121561227457600080fd5b600061228285828601611ff7565b925050602061229385828601612036565b9150509250929050565b600080604083850312156122b057600080fd5b60006122be85828601611ff7565b925050602083013567ffffffffffffffff8111156122db57600080fd5b6122e78582860161209f565b9150509250929050565b60008060006060848603121561230657600080fd5b600061231486828701611ff7565b935050602084013567ffffffffffffffff81111561233157600080fd5b61233d8682870161209f565b925050604061234e868287016120c9565b9150509250925092565b6000806040838503121561236b57600080fd5b600061237985828601611ff7565b925050602061238a858286016120c9565b9150509250929050565b6000602082840312156123a657600080fd5b60006123b48482850161204b565b91505092915050565b6000602082840312156123cf57600080fd5b60006123dd84828501612060565b91505092915050565b6000602082840312156123f857600080fd5b6000612406848285016120c9565b91505092915050565b61241881613051565b82525050565b61242781613063565b82525050565b600061243882612f53565b6124428185612f69565b93506124528185602086016130d4565b61245b8161326f565b840191505092915050565b600061247182612f5e565b61247b8185612f7a565b935061248b8185602086016130d4565b6124948161326f565b840191505092915050565b60006124aa82612f5e565b6124b48185612f8b565b93506124c48185602086016130d4565b80840191505092915050565b60006124dd603283612f7a565b91507f4552433732313a207472616e7366657220746f206e6f6e20455243373231526560008301527f63656976657220696d706c656d656e74657200000000000000000000000000006020830152604082019050919050565b6000612543602683612f7a565b91507f4f776e61626c653a206e6577206f776e657220697320746865207a65726f206160008301527f64647265737300000000000000000000000000000000000000000000000000006020830152604082019050919050565b60006125a9601c83612f7a565b91507f4552433732313a20746f6b656e20616c7265616479206d696e746564000000006000830152602082019050919050565b60006125e9602483612f7a565b91507f4552433732313a207472616e7366657220746f20746865207a65726f2061646460008301527f72657373000000000000000000000000000000000000000000000000000000006020830152604082019050919050565b600061264f601983612f7a565b91507f4552433732313a20617070726f766520746f2063616c6c6572000000000000006000830152602082019050919050565b600061268f602c83612f7a565b91507f4552433732313a206f70657261746f7220717565727920666f72206e6f6e657860008301527f697374656e7420746f6b656e00000000000000000000000000000000000000006020830152604082019050919050565b60006126f5603883612f7a565b91507f4552433732313a20617070726f76652063616c6c6572206973206e6f74206f7760008301527f6e6572206e6f7220617070726f76656420666f7220616c6c00000000000000006020830152604082019050919050565b600061275b602a83612f7a565b91507f4552433732313a2062616c616e636520717565727920666f7220746865207a6560008301527f726f2061646472657373000000000000000000000000000000000000000000006020830152604082019050919050565b60006127c1602983612f7a565b91507f4552433732313a206f776e657220717565727920666f72206e6f6e657869737460008301527f656e7420746f6b656e00000000000000000000000000000000000000000000006020830152604082019050919050565b6000612827602e83612f7a565b91507f45524337323155524953746f726167653a2055524920736574206f66206e6f6e60008301527f6578697374656e7420746f6b656e0000000000000000000000000000000000006020830152604082019050919050565b600061288d602083612f7a565b91507f4552433732313a206d696e7420746f20746865207a65726f20616464726573736000830152602082019050919050565b60006128cd603183612f7a565b91507f45524337323155524953746f726167653a2055524920717565727920666f722060008301527f6e6f6e6578697374656e7420746f6b656e0000000000000000000000000000006020830152604082019050919050565b6000612933602c83612f7a565b91507f4552433732313a20617070726f76656420717565727920666f72206e6f6e657860008301527f697374656e7420746f6b656e00000000000000000000000000000000000000006020830152604082019050919050565b6000612999602083612f7a565b91507f4f776e61626c653a2063616c6c6572206973206e6f7420746865206f776e65726000830152602082019050919050565b60006129d9602983612f7a565b91507f4552433732313a207472616e73666572206f6620746f6b656e2074686174206960008301527f73206e6f74206f776e00000000000000000000000000000000000000000000006020830152604082019050919050565b6000612a3f602f83612f7a565b91507f4552433732314d657461646174613a2055524920717565727920666f72206e6f60008301527f6e6578697374656e7420746f6b656e00000000000000000000000000000000006020830152604082019050919050565b6000612aa5602183612f7a565b91507f4552433732313a20617070726f76616c20746f2063757272656e74206f776e6560008301527f72000000000000000000000000000000000000000000000000000000000000006020830152604082019050919050565b6000612b0b603183612f7a565b91507f4552433732313a207472616e736665722063616c6c6572206973206e6f74206f60008301527f776e6572206e6f7220617070726f7665640000000000000000000000000000006020830152604082019050919050565b612b6d816130bb565b82525050565b6000612b7f828561249f565b9150612b8b828461249f565b91508190509392505050565b6000602082019050612bac600083018461240f565b92915050565b6000608082019050612bc7600083018761240f565b612bd4602083018661240f565b612be16040830185612b64565b8181036060830152612bf3818461242d565b905095945050505050565b6000602082019050612c13600083018461241e565b92915050565b60006020820190508181036000830152612c338184612466565b905092915050565b60006020820190508181036000830152612c54816124d0565b9050919050565b60006020820190508181036000830152612c7481612536565b9050919050565b60006020820190508181036000830152612c948161259c565b9050919050565b60006020820190508181036000830152612cb4816125dc565b9050919050565b60006020820190508181036000830152612cd481612642565b9050919050565b60006020820190508181036000830152612cf481612682565b9050919050565b60006020820190508181036000830152612d14816126e8565b9050919050565b60006020820190508181036000830152612d348161274e565b9050919050565b60006020820190508181036000830152612d54816127b4565b9050919050565b60006020820190508181036000830152612d748161281a565b9050919050565b60006020820190508181036000830152612d9481612880565b9050919050565b60006020820190508181036000830152612db4816128c0565b9050919050565b60006020820190508181036000830152612dd481612926565b9050919050565b60006020820190508181036000830152612df48161298c565b9050919050565b60006020820190508181036000830152612e14816129cc565b9050919050565b60006020820190508181036000830152612e3481612a32565b9050919050565b60006020820190508181036000830152612e5481612a98565b9050919050565b60006020820190508181036000830152612e7481612afe565b9050919050565b6000602082019050612e906000830184612b64565b92915050565b6000604051905081810181811067ffffffffffffffff82111715612ebd57612ebc613240565b5b8060405250919050565b600067ffffffffffffffff821115612ee257612ee1613240565b5b602082029050602081019050919050565b600067ffffffffffffffff821115612f0e57612f0d613240565b5b601f19601f8301169050602081019050919050565b600067ffffffffffffffff821115612f3e57612f3d613240565b5b601f19601f8301169050602081019050919050565b600081519050919050565b600081519050919050565b600082825260208201905092915050565b600082825260208201905092915050565b600081905092915050565b6000612fa1826130bb565b9150612fac836130bb565b9250827fffffffffffffffffffffffffffffffffffffffffffffffffffffffffffffffff03821115612fe157612fe06131b3565b5b828201905092915050565b6000612ff7826130bb565b9150613002836130bb565b925082613012576130116131e2565b5b828204905092915050565b6000613028826130bb565b9150613033836130bb565b925082821015613046576130456131b3565b5b828203905092915050565b600061305c8261309b565b9050919050565b60008115159050919050565b60007fffffffff0000000000000000000000000000000000000000000000000000000082169050919050565b600073ffffffffffffffffffffffffffffffffffffffff82169050919050565b6000819050919050565b82818337600083830152505050565b60005b838110156130f25780820151818401526020810190506130d7565b83811115613101576000848401525b50505050565b6000600282049050600182168061311f57607f821691505b6020821081141561313357613132613211565b5b50919050565b6000613144826130bb565b91507fffffffffffffffffffffffffffffffffffffffffffffffffffffffffffffffff821415613177576131766131b3565b5b600182019050919050565b600061318d826130bb565b9150613198836130bb565b9250826131a8576131a76131e2565b5b828206905092915050565b7f4e487b7100000000000000000000000000000000000000000000000000000000600052601160045260246000fd5b7f4e487b7100000000000000000000000000000000000000000000000000000000600052601260045260246000fd5b7f4e487b7100000000000000000000000000000000000000000000000000000000600052602260045260246000fd5b7f4e487b7100000000000000000000000000000000000000000000000000000000600052604160045260246000fd5b6000601f19601f8301169050919050565b61328981613051565b811461329457600080fd5b50565b6132a081613063565b81146132ab57600080fd5b50565b6132b78161306f565b81146132c257600080fd5b50565b6132ce816130bb565b81146132d957600080fd5b5056fea2646970667358221220c4b94cbe027f23ac3efe3d7f3108ea328ed0430767ce8306beb2f34dbb2540d864736f6c63430008000033",
  "linkReferences": {},
  "deployedLinkReferences": {}
}